{
  "contractName": "Uber",
  "abi": [
    {
      "constant": true,
      "inputs": [
        {
          "name": "",
          "type": "address"
        }
      ],
      "name": "driverMapping",
      "outputs": [
        {
          "name": "",
          "type": "uint256"
        }
      ],
      "payable": false,
      "stateMutability": "view",
      "type": "function"
    },
    {
      "constant": true,
      "inputs": [
        {
          "name": "",
          "type": "uint256"
        }
      ],
      "name": "driverData",
      "outputs": [
        {
          "name": "id",
          "type": "uint256"
        },
        {
          "name": "name",
          "type": "string"
        },
        {
          "name": "lic",
          "type": "string"
        },
        {
          "name": "contactNumber",
          "type": "uint256"
        }
      ],
      "payable": false,
      "stateMutability": "view",
      "type": "function"
    },
    {
      "constant": true,
      "inputs": [
        {
          "name": "",
          "type": "uint256"
        }
      ],
      "name": "requestData",
      "outputs": [
        {
          "name": "id",
          "type": "uint256"
        },
        {
          "name": "ip_person",
          "type": "address"
        },
        {
          "name": "source",
          "type": "string"
        },
        {
          "name": "destination",
          "type": "string"
        },
        {
          "name": "cost",
          "type": "uint256"
        }
      ],
      "payable": false,
      "stateMutability": "view",
      "type": "function"
    },
    {
      "constant": true,
      "inputs": [
        {
          "name": "",
          "type": "address"
        }
      ],
      "name": "riderMapping",
      "outputs": [
        {
          "name": "",
          "type": "uint256"
        }
      ],
      "payable": false,
      "stateMutability": "view",
      "type": "function"
    },
    {
      "constant": true,
      "inputs": [],
      "name": "requestCount",
      "outputs": [
        {
          "name": "",
          "type": "uint256"
        }
      ],
      "payable": false,
      "stateMutability": "view",
      "type": "function"
    },
    {
      "constant": true,
      "inputs": [],
      "name": "driverCount",
      "outputs": [
        {
          "name": "",
          "type": "uint256"
        }
      ],
      "payable": false,
      "stateMutability": "view",
      "type": "function"
    },
    {
      "inputs": [],
      "payable": false,
      "stateMutability": "nonpayable",
      "type": "constructor"
    },
    {
      "constant": false,
      "inputs": [],
      "name": "checkDriver",
      "outputs": [
        {
          "name": "",
          "type": "bool"
        }
      ],
      "payable": false,
      "stateMutability": "nonpayable",
      "type": "function"
    },
    {
      "constant": false,
      "inputs": [
        {
          "name": "_name",
          "type": "string"
        },
        {
          "name": "_lic",
          "type": "string"
        },
        {
          "name": "_mob",
          "type": "uint256"
        }
      ],
      "name": "addDriver",
      "outputs": [],
      "payable": false,
      "stateMutability": "nonpayable",
      "type": "function"
    },
    {
      "constant": false,
      "inputs": [],
      "name": "checkRider",
      "outputs": [
        {
          "name": "",
          "type": "bool"
        }
      ],
      "payable": false,
      "stateMutability": "nonpayable",
      "type": "function"
    },
    {
      "constant": false,
      "inputs": [
        {
          "name": "_src",
          "type": "string"
        },
        {
          "name": "_dest",
          "type": "string"
        }
      ],
      "name": "addRequest",
      "outputs": [],
      "payable": false,
      "stateMutability": "nonpayable",
      "type": "function"
    }
  ],
  "bytecode": "0x60806040523480156200001157600080fd5b506200009c6040805190810160405280600881526020017f44726976657220310000000000000000000000000000000000000000000000008152506040805190810160405280600581526020017f415344313200000000000000000000000000000000000000000000000000000081525063359504ef62000236640100000000026401000000009004565b620001266040805190810160405280600881526020017f44726976657220320000000000000000000000000000000000000000000000008152506040805190810160405280600681526020017f515745453231000000000000000000000000000000000000000000000000000081525063075998b762000236640100000000026401000000009004565b620001ab6040805190810160405280600381526020017f61736400000000000000000000000000000000000000000000000000000000008152506040805190810160405280600381526020017f617773000000000000000000000000000000000000000000000000000000000081525062000320640100000000026401000000009004565b620002306040805190810160405280600381526020017f6c6b6100000000000000000000000000000000000000000000000000000000008152506040805190810160405280600381526020017f657764000000000000000000000000000000000000000000000000000000000081525062000320640100000000026401000000009004565b620004dd565b6003600081548092919060010191905055506003546000803373ffffffffffffffffffffffffffffffffffffffff1673ffffffffffffffffffffffffffffffffffffffff16815260200190815260200160002081905550608060405190810160405280600354815260200184815260200183815260200182815250600260006003548152602001908152602001600020600082015181600001556020820151816001019080519060200190620002ee9291906200042e565b5060408201518160020190805190602001906200030d9291906200042e565b5060608201518160030155905050505050565b60006005600081548092919060010191905055506064905060a06040519081016040528060055481526020013373ffffffffffffffffffffffffffffffffffffffff168152602001848152602001838152602001828152506004600060055481526020019081526020016000206000820151816000015560208201518160010160006101000a81548173ffffffffffffffffffffffffffffffffffffffff021916908373ffffffffffffffffffffffffffffffffffffffff1602179055506040820151816002019080519060200190620003fc9291906200042e565b5060608201518160030190805190602001906200041b9291906200042e565b5060808201518160040155905050505050565b828054600181600116156101000203166002900490600052602060002090601f016020900481019282601f106200047157805160ff1916838001178555620004a2565b82800160010185558215620004a2579182015b82811115620004a157825182559160200191906001019062000484565b5b509050620004b19190620004b5565b5090565b620004da91905b80821115620004d6576000816000905550600101620004bc565b5090565b90565b610c7c80620004ed6000396000f3006080604052600436106100a4576000357c0100000000000000000000000000000000000000000000000000000000900463ffffffff16806303a675cb146100a95780630d6399ca146101625780631faa0eec146101b95780632adb9e3c146102d95780632e7e34c91461042c57806358a4757c1461045b5780635badbe4c146104b2578063b9da4af8146104dd578063d1bba9981461058c578063f359d66d146105bb575b600080fd5b3480156100b557600080fd5b50610160600480360381019080803590602001908201803590602001908080601f0160208091040260200160405190810160405280939291908181526020018383808284378201915050505050509192919290803590602001908201803590602001908080601f0160208091040260200160405190810160405280939291908181526020018383808284378201915050505050509192919290803590602001909291905050506105e6565b005b34801561016e57600080fd5b506101a3600480360381019080803573ffffffffffffffffffffffffffffffffffffffff1690602001909291905050506106cc565b6040518082815260200191505060405180910390f35b3480156101c557600080fd5b506101e4600480360381019080803590602001909291905050506106e4565b604051808581526020018060200180602001848152602001838103835286818151815260200191508051906020019080838360005b83811015610234578082015181840152602081019050610219565b50505050905090810190601f1680156102615780820380516001836020036101000a031916815260200191505b50838103825285818151815260200191508051906020019080838360005b8381101561029a57808201518184015260208101905061027f565b50505050905090810190601f1680156102c75780820380516001836020036101000a031916815260200191505b50965050505050505060405180910390f35b3480156102e557600080fd5b5061030460048036038101908080359060200190929190505050610844565b604051808681526020018573ffffffffffffffffffffffffffffffffffffffff1673ffffffffffffffffffffffffffffffffffffffff1681526020018060200180602001848152602001838103835286818151815260200191508051906020019080838360005b8381101561038657808201518184015260208101905061036b565b50505050905090810190601f1680156103b35780820380516001836020036101000a031916815260200191505b50838103825285818151815260200191508051906020019080838360005b838110156103ec5780820151818401526020810190506103d1565b50505050905090810190601f1680156104195780820380516001836020036101000a031916815260200191505b5097505050505050505060405180910390f35b34801561043857600080fd5b506104416109ca565b604051808215151515815260200191505060405180910390f35b34801561046757600080fd5b5061049c600480360381019080803573ffffffffffffffffffffffffffffffffffffffff169060200190929190505050610a23565b6040518082815260200191505060405180910390f35b3480156104be57600080fd5b506104c7610a3b565b6040518082815260200191505060405180910390f35b3480156104e957600080fd5b5061058a600480360381019080803590602001908201803590602001908080601f0160208091040260200160405190810160405280939291908181526020018383808284378201915050505050509192919290803590602001908201803590602001908080601f0160208091040260200160405190810160405280939291908181526020018383808284378201915050505050509192919290505050610a41565b005b34801561059857600080fd5b506105a1610b4b565b604051808215151515815260200191505060405180910390f35b3480156105c757600080fd5b506105d0610ba5565b6040518082815260200191505060405180910390f35b6003600081548092919060010191905055506003546000803373ffffffffffffffffffffffffffffffffffffffff1673ffffffffffffffffffffffffffffffffffffffff1681526020019081526020016000208190555060806040519081016040528060035481526020018481526020018381526020018281525060026000600354815260200190815260200160002060008201518160000155602082015181600101908051906020019061069c929190610bab565b5060408201518160020190805190602001906106b9929190610bab565b5060608201518160030155905050505050565b60006020528060005260406000206000915090505481565b6002602052806000526040600020600091509050806000015490806001018054600181600116156101000203166002900480601f0160208091040260200160405190810160405280929190818152602001828054600181600116156101000203166002900480156107965780601f1061076b57610100808354040283529160200191610796565b820191906000526020600020905b81548152906001019060200180831161077957829003601f168201915b505050505090806002018054600181600116156101000203166002900480601f0160208091040260200160405190810160405280929190818152602001828054600181600116156101000203166002900480156108345780601f1061080957610100808354040283529160200191610834565b820191906000526020600020905b81548152906001019060200180831161081757829003601f168201915b5050505050908060030154905084565b60046020528060005260406000206000915090508060000154908060010160009054906101000a900473ffffffffffffffffffffffffffffffffffffffff1690806002018054600181600116156101000203166002900480601f01602080910402602001604051908101604052809291908181526020018280546001816001161561010002031660029004801561091c5780601f106108f15761010080835404028352916020019161091c565b820191906000526020600020905b8154815290600101906020018083116108ff57829003601f168201915b505050505090806003018054600181600116156101000203166002900480601f0160208091040260200160405190810160405280929190818152602001828054600181600116156101000203166002900480156109ba5780601f1061098f576101008083540402835291602001916109ba565b820191906000526020600020905b81548152906001019060200180831161099d57829003601f168201915b5050505050908060040154905085565b6000806000803373ffffffffffffffffffffffffffffffffffffffff1673ffffffffffffffffffffffffffffffffffffffff168152602001908152602001600020541115610a1b5760019050610a20565b600090505b90565b60016020528060005260406000206000915090505481565b60055481565b60006005600081548092919060010191905055506064905060a06040519081016040528060055481526020013373ffffffffffffffffffffffffffffffffffffffff168152602001848152602001838152602001828152506004600060055481526020019081526020016000206000820151816000015560208201518160010160006101000a81548173ffffffffffffffffffffffffffffffffffffffff021916908373ffffffffffffffffffffffffffffffffffffffff1602179055506040820151816002019080519060200190610b1b929190610bab565b506060820151816003019080519060200190610b38929190610bab565b5060808201518160040155905050505050565b600080600160003373ffffffffffffffffffffffffffffffffffffffff1673ffffffffffffffffffffffffffffffffffffffff168152602001908152602001600020541115610b9d5760019050610ba2565b600090505b90565b60035481565b828054600181600116156101000203166002900490600052602060002090601f016020900481019282601f10610bec57805160ff1916838001178555610c1a565b82800160010185558215610c1a579182015b82811115610c19578251825591602001919060010190610bfe565b5b509050610c279190610c2b565b5090565b610c4d91905b80821115610c49576000816000905550600101610c31565b5090565b905600a165627a7a72305820525108110c86a522a3104b7b93789f3a47989736a13e7e4cc7e928ac694354220029",
  "source": "pragma solidity ^0.4.2;\n\ncontract Uber \n{\n    \n    struct Driver \n    {\n        uint id;\n        string name;\n        string lic;\n        uint contactNumber;\n    }\n\n    struct RideRequest\n    {\n    \tuint id;\n    \taddress ip_person;\n    \tstring source;\n    \tstring destination;\n    \tuint cost;\n    }\n\n    mapping(address => uint) public driverMapping;\n    mapping(address => uint) public riderMapping;\n    mapping(uint => Driver) public driverData;\n    uint public driverCount;\n    mapping(uint => RideRequest) public requestData;\n    uint public requestCount;\n\n\n\n  \tfunction Uber () public \n    {\n        addDriver(\"Driver 1\", \"ASD12\", 898958575);\n        addDriver(\"Driver 2\", \"QWEE21\", 123312311);\n        addRequest(\"asd\", \"aws\");\n        addRequest(\"lka\", \"ewd\");\n    }\n\n\n// functions related to driver\n\n    function checkDriver () public returns (bool)\n    {\n    \tif (driverMapping[msg.sender] > 0)\n    \t\treturn true;\n    \treturn false;\n    }\n\n    function addDriver (string _name, string _lic, uint _mob) public \n    {\n        driverCount ++;\n        driverMapping[msg.sender] = driverCount;\n        driverData[driverCount] = Driver(driverCount, _name, _lic, _mob);\n    } \n\n\n\n// functions related to rider\n\n    function checkRider () public returns (bool)\n    {\n    \tif (riderMapping[msg.sender] > 0)\n    \t\treturn true;\n    \treturn false;\n    }\n\n    function addRequest (string _src, string _dest) public\n    {\n    \trequestCount++;\n    \tuint _cost = 100; //calcCost (_src, _dest);\n    \trequestData[requestCount] = RideRequest(requestCount, msg.sender, _src, _dest, _cost);\n    }\n\n// // general functions\n//     function calcCost (string _src, string _dest)\n//     {\n//     \treturn 100;\n//     }\n\n}",
  "sourcePath": "/home/ansh/Desktop/Blockchain/Uber/dApp_Uber/contracts/Uber.sol",
  "compiler": {
    "name": "solc",
    "version": "0.4.24+commit.e67f0147.Emscripten.clang"
  },
  "schemaVersion": "2.0.1",
  "updatedAt": "2018-11-05T20:58:33.387Z"
}